{
  "contractName": "AirQualityData",
  "abi": [
    {
      "inputs": [],
      "stateMutability": "nonpayable",
      "type": "constructor"
    },
    {
      "anonymous": false,
      "inputs": [
        {
          "indexed": false,
          "internalType": "uint256",
          "name": "timestamp",
          "type": "uint256"
        },
        {
          "indexed": false,
          "internalType": "uint256",
          "name": "co2",
          "type": "uint256"
        },
        {
          "indexed": false,
          "internalType": "uint256",
          "name": "no2",
          "type": "uint256"
        },
        {
          "indexed": false,
          "internalType": "uint256",
          "name": "pm25",
          "type": "uint256"
        },
        {
          "indexed": false,
          "internalType": "uint256",
          "name": "pm10",
          "type": "uint256"
        }
      ],
      "name": "NewReading",
      "type": "event"
    },
    {
      "inputs": [],
      "name": "owner",
      "outputs": [
        {
          "internalType": "address",
          "name": "",
          "type": "address"
        }
      ],
      "stateMutability": "view",
      "type": "function",
      "constant": true
    },
    {
      "inputs": [
        {
          "internalType": "uint256",
          "name": "",
          "type": "uint256"
        }
      ],
      "name": "readings",
      "outputs": [
        {
          "internalType": "uint256",
          "name": "timestamp",
          "type": "uint256"
        },
        {
          "internalType": "uint256",
          "name": "co2",
          "type": "uint256"
        },
        {
          "internalType": "uint256",
          "name": "no2",
          "type": "uint256"
        },
        {
          "internalType": "uint256",
          "name": "pm25",
          "type": "uint256"
        },
        {
          "internalType": "uint256",
          "name": "pm10",
          "type": "uint256"
        }
      ],
      "stateMutability": "view",
      "type": "function",
      "constant": true
    },
    {
      "inputs": [
        {
          "internalType": "uint256",
          "name": "_co2",
          "type": "uint256"
        },
        {
          "internalType": "uint256",
          "name": "_no2",
          "type": "uint256"
        },
        {
          "internalType": "uint256",
          "name": "_pm25",
          "type": "uint256"
        },
        {
          "internalType": "uint256",
          "name": "_pm10",
          "type": "uint256"
        }
      ],
      "name": "addReading",
      "outputs": [],
      "stateMutability": "nonpayable",
      "type": "function"
    },
    {
      "inputs": [],
      "name": "getReadingCount",
      "outputs": [
        {
          "internalType": "uint256",
          "name": "",
          "type": "uint256"
        }
      ],
      "stateMutability": "view",
      "type": "function",
      "constant": true
    },
    {
      "inputs": [
        {
          "internalType": "uint256",
          "name": "index",
          "type": "uint256"
        }
      ],
      "name": "getReading",
      "outputs": [
        {
          "internalType": "uint256",
          "name": "",
          "type": "uint256"
        },
        {
          "internalType": "uint256",
          "name": "",
          "type": "uint256"
        },
        {
          "internalType": "uint256",
          "name": "",
          "type": "uint256"
        },
        {
          "internalType": "uint256",
          "name": "",
          "type": "uint256"
        },
        {
          "internalType": "uint256",
          "name": "",
          "type": "uint256"
        }
      ],
      "stateMutability": "view",
      "type": "function",
      "constant": true
    }
  ],
  "bytecode": "0x6080604052348015600e575f5ffd5b503360015f6101000a81548173ffffffffffffffffffffffffffffffffffffffff021916908373ffffffffffffffffffffffffffffffffffffffff1602179055506106088061005c5f395ff3fe608060405234801561000f575f5ffd5b5060043610610054575f3560e01c806287a7881461005857806376ffb52e1461008c5780638da5cb5b146100a8578063d5da886d146100c6578063d6dd2f3d146100fa575b5f5ffd5b610072600480360381019061006d91906103a7565b610118565b6040516100839594939291906103e1565b60405180910390f35b6100a660048036038101906100a19190610432565b6101a7565b005b6100b0610300565b6040516100bd91906104d5565b60405180910390f35b6100e060048036038101906100db91906103a7565b610325565b6040516100f19594939291906103e1565b60405180910390f35b610102610365565b60405161010f91906104ee565b60405180910390f35b5f5f5f5f5f5f5f878154811061013157610130610507565b5b905f5260205f2090600502016040518060a00160405290815f82015481526020016001820154815260200160028201548152602001600382015481526020016004820154815250509050805f01518160200151826040015183606001518460800151955095509550955095505091939590929450565b60015f9054906101000a900473ffffffffffffffffffffffffffffffffffffffff1673ffffffffffffffffffffffffffffffffffffffff163373ffffffffffffffffffffffffffffffffffffffff1614610236576040517f08c379a000000000000000000000000000000000000000000000000000000000815260040161022d906105b4565b60405180910390fd5b5f4290505f6040518060a0016040528083815260200187815260200186815260200185815260200184815250908060018154018082558091505060019003905f5260205f2090600502015f909190919091505f820151815f01556020820151816001015560408201518160020155606082015181600301556080820151816004015550507fcbc4996bee3c35fe3a815a7e7721186af0ab0edd6616de6e1bffdb5d59d0dd9681868686866040516102f19594939291906103e1565b60405180910390a15050505050565b60015f9054906101000a900473ffffffffffffffffffffffffffffffffffffffff1681565b5f8181548110610333575f80fd5b905f5260205f2090600502015f91509050805f0154908060010154908060020154908060030154908060040154905085565b5f5f80549050905090565b5f5ffd5b5f819050919050565b61038681610374565b8114610390575f5ffd5b50565b5f813590506103a18161037d565b92915050565b5f602082840312156103bc576103bb610370565b5b5f6103c984828501610393565b91505092915050565b6103db81610374565b82525050565b5f60a0820190506103f45f8301886103d2565b61040160208301876103d2565b61040e60408301866103d2565b61041b60608301856103d2565b61042860808301846103d2565b9695505050505050565b5f5f5f5f6080858703121561044a57610449610370565b5b5f61045787828801610393565b945050602061046887828801610393565b935050604061047987828801610393565b925050606061048a87828801610393565b91505092959194509250565b5f73ffffffffffffffffffffffffffffffffffffffff82169050919050565b5f6104bf82610496565b9050919050565b6104cf816104b5565b82525050565b5f6020820190506104e85f8301846104c6565b92915050565b5f6020820190506105015f8301846103d2565b92915050565b7f4e487b71000000000000000000000000000000000000000000000000000000005f52603260045260245ffd5b5f82825260208201905092915050565b7f4f6e6c79206f776e65722063616e2063616c6c20746869732066756e6374696f5f8201527f6e00000000000000000000000000000000000000000000000000000000000000602082015250565b5f61059e602183610534565b91506105a982610544565b604082019050919050565b5f6020820190508181035f8301526105cb81610592565b905091905056fea26469706673582212209f9d8e29549b0a147364940cde256291286babef85a67c609f62e18de4c8db4064736f6c634300081d0033",
  "immutableReferences": {},
  "source": "// SPDX-License-Identifier: MIT\npragma solidity ^0.8.0;\n\ncontract AirQualityData {\n    struct Reading {\n        uint256 timestamp;\n        uint256 co2;\n        uint256 no2;\n        uint256 pm25;\n        uint256 pm10;\n    }\n\n    Reading[] public readings;\n    address public owner;\n\n    event NewReading(uint256 timestamp, uint256 co2, uint256 no2, uint256 pm25, uint256 pm10);\n\n    constructor() {\n        owner = msg.sender;\n    }\n\n    // Modifier to restrict function access\n    modifier onlyOwner() {\n        require(msg.sender == owner, \"Only owner can call this function\");\n        _;\n    }\n\n    // Function to add a new reading (simulated IoT sensor data)\n    function addReading(uint256 _co2, uint256 _no2, uint256 _pm25, uint256 _pm10) public onlyOwner {\n        uint256 currentTime = block.timestamp;\n        readings.push(Reading(currentTime, _co2, _no2, _pm25, _pm10));\n        emit NewReading(currentTime, _co2, _no2, _pm25, _pm10);\n    }\n\n    // Function to get total number of readings\n    function getReadingCount() public view returns (uint256) {\n        return readings.length;\n    }\n    \n    // Function to get the latest reading by accessing the last element of the readings array\n    function getReading(uint index) public view returns (uint, uint, uint, uint, uint) {\n        Reading memory r = readings[index];\n        return (r.timestamp, r.co2, r.no2, r.pm25, r.pm10);\n    }\n}\n",
  "sourcePath": "/home/user/test/contracts/AirQualityData.sol",
  "compiler": {
    "name": "solc",
    "version": "0.8.29+commit.ab55807c.Emscripten.clang"
  },
  "schemaVersion": "3.4.16",
  "updatedAt": "2025-04-07T18:23:33.949Z",
  "networkType": "ethereum",
  "devdoc": {
    "kind": "dev",
    "methods": {},
    "version": 1
  },
  "userdoc": {
    "kind": "user",
    "methods": {},
    "version": 1
  }
}