{
  "contractName": "AirQualityData",
  "abi": [
    {
      "inputs": [],
      "stateMutability": "nonpayable",
      "type": "constructor"
    },
    {
      "anonymous": false,
      "inputs": [
        {
          "indexed": false,
          "internalType": "uint256",
          "name": "timestamp",
          "type": "uint256"
        },
        {
          "indexed": false,
          "internalType": "uint256",
          "name": "co2",
          "type": "uint256"
        },
        {
          "indexed": false,
          "internalType": "uint256",
          "name": "no2",
          "type": "uint256"
        },
        {
          "indexed": false,
          "internalType": "uint256",
          "name": "pm25",
          "type": "uint256"
        },
        {
          "indexed": false,
          "internalType": "uint256",
          "name": "pm10",
          "type": "uint256"
        }
      ],
      "name": "NewReading",
      "type": "event"
    },
    {
      "inputs": [],
      "name": "owner",
      "outputs": [
        {
          "internalType": "address",
          "name": "",
          "type": "address"
        }
      ],
      "stateMutability": "view",
      "type": "function",
      "constant": true
    },
    {
      "inputs": [
        {
          "internalType": "uint256",
          "name": "",
          "type": "uint256"
        }
      ],
      "name": "readings",
      "outputs": [
        {
          "internalType": "uint256",
          "name": "timestamp",
          "type": "uint256"
        },
        {
          "internalType": "uint256",
          "name": "co2",
          "type": "uint256"
        },
        {
          "internalType": "uint256",
          "name": "no2",
          "type": "uint256"
        },
        {
          "internalType": "uint256",
          "name": "pm25",
          "type": "uint256"
        },
        {
          "internalType": "uint256",
          "name": "pm10",
          "type": "uint256"
        }
      ],
      "stateMutability": "view",
      "type": "function",
      "constant": true
    },
    {
      "inputs": [
        {
          "internalType": "uint256",
          "name": "_co2",
          "type": "uint256"
        },
        {
          "internalType": "uint256",
          "name": "_no2",
          "type": "uint256"
        },
        {
          "internalType": "uint256",
          "name": "_pm25",
          "type": "uint256"
        },
        {
          "internalType": "uint256",
          "name": "_pm10",
          "type": "uint256"
        }
      ],
      "name": "addReading",
      "outputs": [],
      "stateMutability": "nonpayable",
      "type": "function"
    },
    {
      "inputs": [],
      "name": "getReadingCount",
      "outputs": [
        {
          "internalType": "uint256",
          "name": "",
          "type": "uint256"
        }
      ],
      "stateMutability": "view",
      "type": "function",
      "constant": true
    }
  ],
  "bytecode": "0x608060405234801561000f575f80fd5b503360015f6101000a81548173ffffffffffffffffffffffffffffffffffffffff021916908373ffffffffffffffffffffffffffffffffffffffff16021790555061050e8061005d5f395ff3fe608060405234801561000f575f80fd5b506004361061004a575f3560e01c806376ffb52e1461004e5780638da5cb5b1461006a578063d5da886d14610088578063d6dd2f3d146100bc575b5f80fd5b610068600480360381019061006391906102da565b6100da565b005b610072610233565b60405161007f919061037d565b60405180910390f35b6100a2600480360381019061009d9190610396565b610258565b6040516100b39594939291906103d0565b60405180910390f35b6100c4610298565b6040516100d19190610421565b60405180910390f35b60015f9054906101000a900473ffffffffffffffffffffffffffffffffffffffff1673ffffffffffffffffffffffffffffffffffffffff163373ffffffffffffffffffffffffffffffffffffffff1614610169576040517f08c379a0000000000000000000000000000000000000000000000000000000008152600401610160906104ba565b60405180910390fd5b5f4290505f6040518060a0016040528083815260200187815260200186815260200185815260200184815250908060018154018082558091505060019003905f5260205f2090600502015f909190919091505f820151815f01556020820151816001015560408201518160020155606082015181600301556080820151816004015550507fcbc4996bee3c35fe3a815a7e7721186af0ab0edd6616de6e1bffdb5d59d0dd9681868686866040516102249594939291906103d0565b60405180910390a15050505050565b60015f9054906101000a900473ffffffffffffffffffffffffffffffffffffffff1681565b5f8181548110610266575f80fd5b905f5260205f2090600502015f91509050805f0154908060010154908060020154908060030154908060040154905085565b5f8080549050905090565b5f80fd5b5f819050919050565b6102b9816102a7565b81146102c3575f80fd5b50565b5f813590506102d4816102b0565b92915050565b5f805f80608085870312156102f2576102f16102a3565b5b5f6102ff878288016102c6565b9450506020610310878288016102c6565b9350506040610321878288016102c6565b9250506060610332878288016102c6565b91505092959194509250565b5f73ffffffffffffffffffffffffffffffffffffffff82169050919050565b5f6103678261033e565b9050919050565b6103778161035d565b82525050565b5f6020820190506103905f83018461036e565b92915050565b5f602082840312156103ab576103aa6102a3565b5b5f6103b8848285016102c6565b91505092915050565b6103ca816102a7565b82525050565b5f60a0820190506103e35f8301886103c1565b6103f060208301876103c1565b6103fd60408301866103c1565b61040a60608301856103c1565b61041760808301846103c1565b9695505050505050565b5f6020820190506104345f8301846103c1565b92915050565b5f82825260208201905092915050565b7f4f6e6c79206f776e65722063616e2063616c6c20746869732066756e6374696f5f8201527f6e00000000000000000000000000000000000000000000000000000000000000602082015250565b5f6104a460218361043a565b91506104af8261044a565b604082019050919050565b5f6020820190508181035f8301526104d181610498565b905091905056fea264697066735822122087699a9d8fdf23608a525c96887e15b423391b4c40bea9bcfc4016fc4bb337e864736f6c63430008150033",
  "immutableReferences": {},
  "source": "// SPDX-License-Identifier: MIT\npragma solidity ^0.8.0;\n\ncontract AirQualityData {\n    struct Reading {\n        uint256 timestamp;\n        uint256 co2;\n        uint256 no2;\n        uint256 pm25;\n        uint256 pm10;\n    }\n\n    Reading[] public readings;\n    address public owner;\n\n    event NewReading(uint256 timestamp, uint256 co2, uint256 no2, uint256 pm25, uint256 pm10);\n\n    constructor() {\n        owner = msg.sender;\n    }\n\n    // Modifier to restrict function access\n    modifier onlyOwner() {\n        require(msg.sender == owner, \"Only owner can call this function\");\n        _;\n    }\n\n    // Function to add a new reading (simulated IoT sensor data)\n    function addReading(uint256 _co2, uint256 _no2, uint256 _pm25, uint256 _pm10) public onlyOwner {\n        uint256 currentTime = block.timestamp;\n        readings.push(Reading(currentTime, _co2, _no2, _pm25, _pm10));\n        emit NewReading(currentTime, _co2, _no2, _pm25, _pm10);\n    }\n\n    // Function to get total number of readings\n    function getReadingCount() public view returns (uint256) {\n        return readings.length;\n    }\n}\n",
  "sourcePath": "/home/user/test/contracts/AirQualityData.sol",
  "compiler": {
    "name": "solc",
    "version": "0.8.21+commit.d9974bed.Emscripten.clang"
  },
  "schemaVersion": "3.4.16",
  "updatedAt": "2025-04-06T16:38:35.987Z",
  "networkType": "ethereum",
  "devdoc": {
    "kind": "dev",
    "methods": {},
    "version": 1
  },
  "userdoc": {
    "kind": "user",
    "methods": {},
    "version": 1
  }
}